{
  "_format": "hh-sol-artifact-1",
  "contractName": "Attacker",
  "sourceName": "contracts/Attacker.sol",
  "abi": [
    {
      "inputs": [],
      "stateMutability": "nonpayable",
      "type": "constructor"
    },
    {
      "inputs": [],
      "name": "owner",
      "outputs": [
        {
          "internalType": "address",
          "name": "",
          "type": "address"
        }
      ],
      "stateMutability": "view",
      "type": "function"
    },
    {
      "inputs": [
        {
          "internalType": "address",
          "name": "target",
          "type": "address"
        },
        {
          "internalType": "bytes",
          "name": "data",
          "type": "bytes"
        },
        {
          "internalType": "uint256",
          "name": "value",
          "type": "uint256"
        }
      ],
      "name": "ping",
      "outputs": [
        {
          "internalType": "bytes",
          "name": "",
          "type": "bytes"
        }
      ],
      "stateMutability": "payable",
      "type": "function"
    },
    {
      "inputs": [
        {
          "internalType": "address payable",
          "name": "to",
          "type": "address"
        }
      ],
      "name": "sweep",
      "outputs": [],
      "stateMutability": "nonpayable",
      "type": "function"
    },
    {
      "stateMutability": "payable",
      "type": "receive"
    }
  ],
  "bytecode": "0x608060405234801561001057600080fd5b50600080546001600160a01b031916331790556103c8806100326000396000f3fe6080604052600436106100385760003560e01c806301681a6214610044578063020809a0146100795780638da5cb5b1461016e5761003f565b3661003f57005b600080fd5b34801561005057600080fd5b506100776004803603602081101561006757600080fd5b50356001600160a01b031661019f565b005b6100f96004803603606081101561008f57600080fd5b6001600160a01b0382351691908101906040810160208201356401000000008111156100ba57600080fd5b8201836020820111156100cc57600080fd5b803590602001918460018302840111640100000000831117156100ee57600080fd5b919350915035610281565b6040805160208082528351818301528351919283929083019185019080838360005b8381101561013357818101518382015260200161011b565b50505050905090810190601f1680156101605780820380516001836020036101000a031916815260200191505b509250505060405180910390f35b34801561017a57600080fd5b50610183610383565b604080516001600160a01b039092168252519081900360200190f35b6000546001600160a01b031633146101eb576040805162461bcd60e51b815260206004820152600a60248201526937b7363c9037bbb732b960b11b604482015290519081900360640190fd5b6040516000906001600160a01b0383169047908381818185875af1925050503d8060008114610236576040519150601f19603f3d011682016040523d82523d6000602084013e61023b565b606091505b505090508061027d576040805162461bcd60e51b81526020600482015260096024820152681cd95b990819985a5b60ba1b604482015290519081900360640190fd5b5050565b6000546060906001600160a01b031633146102d0576040805162461bcd60e51b815260206004820152600a60248201526937b7363c9037bbb732b960b11b604482015290519081900360640190fd5b600080866001600160a01b0316848787604051808383808284376040519201945060009350909150508083038185875af1925050503d8060008114610331576040519150601f19603f3d011682016040523d82523d6000602084013e610336565b606091505b509150915081610379576040805162461bcd60e51b815260206004820152600960248201526818d85b1b0819985a5b60ba1b604482015290519081900360640190fd5b9695505050505050565b6000546001600160a01b03168156fea2646970667358221220435f3d04059b3c7569526cb6fdec9132e29fedfe1ac310623a0bad3f40ce380264736f6c63430007060033",
  "linkReferences": {},
  "deployedLinkReferences": {}
}