{
  "contracts/CTFMonitor.sol": {
    "CTFMonitor": {
      "abi": [
        {
          "inputs": [
            {
              "internalType": "address[]",
              "name": "_targets",
              "type": "address[]"
            },
            {
              "internalType": "uint256",
              "name": "_minLossWei",
              "type": "uint256"
            },
            {
              "internalType": "uint256",
              "name": "_minGainWei",
              "type": "uint256"
            },
            {
              "internalType": "bool",
              "name": "_drainAll",
              "type": "bool"
            },
            {
              "internalType": "string",
              "name": "_flag",
              "type": "string"
            }
          ],
          "stateMutability": "nonpayable",
          "type": "constructor"
        },
        {
          "anonymous": false,
          "inputs": [
            {
              "indexed": true,
              "internalType": "address",
              "name": "participant",
              "type": "address"
            },
            {
              "indexed": false,
              "internalType": "string",
              "name": "flag",
              "type": "string"
            },
            {
              "indexed": false,
              "internalType": "uint256",
              "name": "totalLossWei",
              "type": "uint256"
            },
            {
              "indexed": false,
              "internalType": "uint256",
              "name": "participantGainWei",
              "type": "uint256"
            }
          ],
          "name": "CTF_FLAG",
          "type": "event"
        },
        {
          "anonymous": false,
          "inputs": [
            {
              "indexed": true,
              "internalType": "address",
              "name": "participant",
              "type": "address"
            },
            {
              "indexed": false,
              "internalType": "uint256",
              "name": "initialEth",
              "type": "uint256"
            }
          ],
          "name": "Enrolled",
          "type": "event"
        },
        {
          "anonymous": false,
          "inputs": [
            {
              "indexed": false,
              "internalType": "uint256",
              "name": "minLossWei",
              "type": "uint256"
            },
            {
              "indexed": false,
              "internalType": "uint256",
              "name": "minGainWei",
              "type": "uint256"
            },
            {
              "indexed": false,
              "internalType": "bool",
              "name": "drainAll",
              "type": "bool"
            },
            {
              "indexed": false,
              "internalType": "uint256",
              "name": "numTargets",
              "type": "uint256"
            }
          ],
          "name": "FlagArmed",
          "type": "event"
        },
        {
          "inputs": [],
          "name": "checkAndReveal",
          "outputs": [],
          "stateMutability": "nonpayable",
          "type": "function"
        },
        {
          "inputs": [],
          "name": "currentLossWei",
          "outputs": [
            {
              "internalType": "uint256",
              "name": "loss",
              "type": "uint256"
            },
            {
              "internalType": "uint256[]",
              "name": "perTargetLoss",
              "type": "uint256[]"
            },
            {
              "internalType": "bool",
              "name": "allDrained",
              "type": "bool"
            }
          ],
          "stateMutability": "view",
          "type": "function"
        },
        {
          "inputs": [],
          "name": "drainAll",
          "outputs": [
            {
              "internalType": "bool",
              "name": "",
              "type": "bool"
            }
          ],
          "stateMutability": "view",
          "type": "function"
        },
        {
          "inputs": [],
          "name": "enroll",
          "outputs": [],
          "stateMutability": "nonpayable",
          "type": "function"
        },
        {
          "inputs": [],
          "name": "flagHash",
          "outputs": [
            {
              "internalType": "bytes32",
              "name": "",
              "type": "bytes32"
            }
          ],
          "stateMutability": "view",
          "type": "function"
        },
        {
          "inputs": [
            {
              "internalType": "address",
              "name": "",
              "type": "address"
            }
          ],
          "name": "initialEth",
          "outputs": [
            {
              "internalType": "uint256",
              "name": "",
              "type": "uint256"
            }
          ],
          "stateMutability": "view",
          "type": "function"
        },
        {
          "inputs": [],
          "name": "minGainWei",
          "outputs": [
            {
              "internalType": "uint256",
              "name": "",
              "type": "uint256"
            }
          ],
          "stateMutability": "view",
          "type": "function"
        },
        {
          "inputs": [],
          "name": "minLossWei",
          "outputs": [
            {
              "internalType": "uint256",
              "name": "",
              "type": "uint256"
            }
          ],
          "stateMutability": "view",
          "type": "function"
        },
        {
          "inputs": [],
          "name": "owner",
          "outputs": [
            {
              "internalType": "address",
              "name": "",
              "type": "address"
            }
          ],
          "stateMutability": "view",
          "type": "function"
        },
        {
          "inputs": [],
          "name": "participant",
          "outputs": [
            {
              "internalType": "address",
              "name": "",
              "type": "address"
            }
          ],
          "stateMutability": "view",
          "type": "function"
        },
        {
          "inputs": [],
          "name": "participantInitialEth",
          "outputs": [
            {
              "internalType": "uint256",
              "name": "",
              "type": "uint256"
            }
          ],
          "stateMutability": "view",
          "type": "function"
        },
        {
          "inputs": [],
          "name": "revealed",
          "outputs": [
            {
              "internalType": "bool",
              "name": "",
              "type": "bool"
            }
          ],
          "stateMutability": "view",
          "type": "function"
        },
        {
          "inputs": [
            {
              "internalType": "bool",
              "name": "_drainAll",
              "type": "bool"
            }
          ],
          "name": "setDrainAll",
          "outputs": [],
          "stateMutability": "nonpayable",
          "type": "function"
        },
        {
          "inputs": [
            {
              "internalType": "uint256",
              "name": "_minGainWei",
              "type": "uint256"
            }
          ],
          "name": "setMinGain",
          "outputs": [],
          "stateMutability": "nonpayable",
          "type": "function"
        },
        {
          "inputs": [
            {
              "internalType": "uint256",
              "name": "_minLossWei",
              "type": "uint256"
            }
          ],
          "name": "setMinLoss",
          "outputs": [],
          "stateMutability": "nonpayable",
          "type": "function"
        },
        {
          "inputs": [],
          "name": "targetCount",
          "outputs": [
            {
              "internalType": "uint256",
              "name": "",
              "type": "uint256"
            }
          ],
          "stateMutability": "view",
          "type": "function"
        },
        {
          "inputs": [
            {
              "internalType": "uint256",
              "name": "",
              "type": "uint256"
            }
          ],
          "name": "targets",
          "outputs": [
            {
              "internalType": "address",
              "name": "",
              "type": "address"
            }
          ],
          "stateMutability": "view",
          "type": "function"
        }
      ],
      "evm": {
        "bytecode": {
          "linkReferences": {},
          "object": "60806040523480156200001157600080fd5b5060405162000ca538038062000ca5833981810160405260a08110156200003757600080fd5b81019080805160405193929190846401000000008211156200005857600080fd5b9083019060208201858111156200006e57600080fd5b82518660208202830111640100000000821117156200008c57600080fd5b82525081516020918201928201910280838360005b83811015620000bb578181015183820152602001620000a1565b505050509190910160408181526020840151908401516060850151608090950180519297919693945090929184640100000000821115620000fb57600080fd5b9083019060208201858111156200011157600080fd5b82516401000000008111828201881017156200012c57600080fd5b82525081516020918201929091019080838360005b838110156200015b57818101518382015260200162000141565b50505050905090810190601f168015620001895780820380516001836020036101000a031916815260200191505b506040525050600080546001600160a01b03191633179055508451620001b7906003906020880190620002bb565b50600584905560068390556007805460ff19168315151790558051620001e590600290602084019062000325565b508051602082012060015560005b85518110156200025a578581815181106200020a57fe5b60200260200101516001600160a01b031631600460008884815181106200022d57fe5b6020908102919091018101516001600160a01b0316825281019190915260400160002055600101620001f3565b50600554600654600754875160408051948552602085019390935260ff9091161515838301526060830152517fd0057a0aa0074c45738574a9b56149f693d172e13f4975ed43f10ed352dd14d09181900360800190a15050505050620003bf565b82805482825590600052602060002090810192821562000313579160200282015b828111156200031357825182546001600160a01b0319166001600160a01b03909116178255602090920191600190910190620002dc565b5062000321929150620003a8565b5090565b828054600181600116156101000203166002900490600052602060002090601f0160209004810192826200035d576000855562000313565b82601f106200037857805160ff191683800117855562000313565b8280016001018555821562000313579182015b82811115620003135782518255916020019190600101906200038b565b5b80821115620003215760008155600101620003a9565b6108d680620003cf6000396000f3fe608060405234801561001057600080fd5b506004361061010b5760003560e01c806379838b1e116100a2578063c4a9154311610071578063c4a91543146101f5578063e481d413146101fd578063e65f2a7e14610269578063f43157e114610271578063f779a5ab146102975761010b565b806379838b1e146101d55780638da5cb5b146101dd578063b01285cd146101e5578063b29ac03a146101ed5761010b565b806337a6d42b116100de57806337a6d42b1461018c57806351830227146101945780635df1bfe5146101b05780636f23d694146101b85761010b565b80630a39ce02146101105780630e457c4f146101495780631455e4d7146101635780631e82e67e1461016b575b600080fd5b61012d6004803603602081101561012657600080fd5b50356102b4565b604080516001600160a01b039092168252519081900360200190f35b6101516102de565b60408051918252519081900360200190f35b6101516102e4565b61018a6004803603602081101561018157600080fd5b503515156102ea565b005b61012d610342565b61019c610356565b604080519115158252519081900360200190f35b61018a61035f565b61018a600480360360208110156101ce57600080fd5b5035610645565b61015161068f565b61012d610695565b6101516106a4565b61019c6106aa565b6101516106b3565b6102056106b9565b60405180848152602001806020018315158152602001828103825284818151815260200191508051906020019060200280838360005b8381101561025357818101518382015260200161023b565b5050505090500194505050505060405180910390f35b61018a61079e565b6101516004803603602081101561028757600080fd5b50356001600160a01b0316610844565b61018a600480360360208110156102ad57600080fd5b5035610856565b600381815481106102c457600080fd5b6000918252602090912001546001600160a01b0316905081565b60055481565b60015481565b6000546001600160a01b0316331461032f576040805162461bcd60e51b815260206004820152600360248201526227aba760e91b604482015290519081900360640190fd5b6007805460ff1916911515919091179055565b60075461010090046001600160a01b031681565b60095460ff1681565b60095460ff16156103a2576040805162461bcd60e51b8152602060048201526008602482015267149155915053115160c21b604482015290519081900360640190fd5b60075461010090046001600160a01b03166103f5576040805162461bcd60e51b815260206004820152600e60248201526d1393d7d41054951250d25410539560921b604482015290519081900360640190fd5b6000806104006106b9565b60075492945092505060ff161561045c5780610457576040805162461bcd60e51b81526020600482015260116024820152701393d517d19553131657d1149052539151607a1b604482015290519081900360640190fd5b6104a7565b6005548210156104a7576040805162461bcd60e51b8152602060048201526011602482015270494e53554646494349454e545f4c4f535360781b604482015290519081900360640190fd5b6007546008546101009091046001600160a01b0316319081101561050b576040805162461bcd60e51b8152602060048201526016602482015275141054951250d25410539517d393d517d1d05253915160521b604482015290519081900360640190fd5b6008546006549082039081101561055d576040805162461bcd60e51b815260206004820152601160248201527024a729aaa32324a1a4a2a72a2fa3a0a4a760791b604482015290519081900360640190fd5b60098054600160ff19909116811790915560075460408051602081018890529081018490526060808252600280546101009581161586026000190116819004918301829052939092046001600160a01b0316927f3680bc648c0679f67515197cc1aa54e3595211ebd7a153483d13a424da172fa79290918891869190819060808201908690801561062f5780601f106106045761010080835404028352916020019161062f565b820191906000526020600020905b81548152906001019060200180831161061257829003601f168201915b505094505050505060405180910390a250505050565b6000546001600160a01b0316331461068a576040805162461bcd60e51b815260206004820152600360248201526227aba760e91b604482015290519081900360640190fd5b600655565b60085481565b6000546001600160a01b031681565b60035490565b60075460ff1681565b60065481565b60006060600060038054905067ffffffffffffffff811180156106db57600080fd5b50604051908082528060200260200182016040528015610705578160200160208202803683370190505b5091506001905060005b6003548110156107985760006003828154811061072857fe5b60009182526020808320909101546001600160a01b0316808352600490915260409091205490915081318181101561077f57600081830390508087868151811061076e57fe5b602090810291909101015296909601955b600181111561078d57600094505b50505060010161070f565b50909192565b60075461010090046001600160a01b0316156107ec576040805162461bcd60e51b815260206004820152600860248201526711539493d313115160c21b604482015290519081900360640190fd5b60078054610100600160a81b031916336101008102919091179091558031600881905560408051918252517f490a826084db94ebf4ad258b797124c9f62176dd5f68205ffbd52d1260f7ed54916020908290030190a2565b60046020526000908152604090205481565b6000546001600160a01b0316331461089b576040805162461bcd60e51b815260206004820152600360248201526227aba760e91b604482015290519081900360640190fd5b60055556fea2646970667358221220c8e1496ae4db3e3cf942e70f7be63cd0cb62ff40219918fb8ef0c1e6e3e2ab6f64736f6c63430007060033",
          "opcodes": "PUSH1 0x80 PUSH1 0x40 MSTORE CALLVALUE DUP1 ISZERO PUSH3 0x11 JUMPI PUSH1 0x0 DUP1 REVERT JUMPDEST POP PUSH1 0x40 MLOAD PUSH3 0xCA5 CODESIZE SUB DUP1 PUSH3 0xCA5 DUP4 CODECOPY DUP2 DUP2 ADD PUSH1 0x40 MSTORE PUSH1 0xA0 DUP2 LT ISZERO PUSH3 0x37 JUMPI PUSH1 0x0 DUP1 REVERT JUMPDEST DUP2 ADD SWAP1 DUP1 DUP1 MLOAD PUSH1 0x40 MLOAD SWAP4 SWAP3 SWAP2 SWAP1 DUP5 PUSH5 0x100000000 DUP3 GT ISZERO PUSH3 0x58 JUMPI PUSH1 0x0 DUP1 REVERT JUMPDEST SWAP1 DUP4 ADD SWAP1 PUSH1 0x20 DUP3 ADD DUP6 DUP2 GT ISZERO PUSH3 0x6E JUMPI PUSH1 0x0 DUP1 REVERT JUMPDEST DUP3 MLOAD DUP7 PUSH1 0x20 DUP3 MUL DUP4 ADD GT PUSH5 0x100000000 DUP3 GT OR ISZERO PUSH3 0x8C JUMPI PUSH1 0x0 DUP1 REVERT JUMPDEST DUP3 MSTORE POP DUP2 MLOAD PUSH1 0x20 SWAP2 DUP3 ADD SWAP3 DUP3 ADD SWAP2 MUL DUP1 DUP4 DUP4 PUSH1 0x0 JUMPDEST DUP4 DUP2 LT ISZERO PUSH3 0xBB JUMPI DUP2 DUP2 ADD MLOAD DUP4 DUP3 ADD MSTORE PUSH1 0x20 ADD PUSH3 0xA1 JUMP JUMPDEST POP POP POP POP SWAP2 SWAP1 SWAP2 ADD PUSH1 0x40 DUP2 DUP2 MSTORE PUSH1 0x20 DUP5 ADD MLOAD SWAP1 DUP5 ADD MLOAD PUSH1 0x60 DUP6 ADD MLOAD PUSH1 0x80 SWAP1 SWAP6 ADD DUP1 MLOAD SWAP3 SWAP8 SWAP2 SWAP7 SWAP4 SWAP5 POP SWAP1 SWAP3 SWAP2 DUP5 PUSH5 0x100000000 DUP3 GT ISZERO PUSH3 0xFB JUMPI PUSH1 0x0 DUP1 REVERT JUMPDEST SWAP1 DUP4 ADD SWAP1 PUSH1 0x20 DUP3 ADD DUP6 DUP2 GT ISZERO PUSH3 0x111 JUMPI PUSH1 0x0 DUP1 REVERT JUMPDEST DUP3 MLOAD PUSH5 0x100000000 DUP2 GT DUP3 DUP3 ADD DUP9 LT OR ISZERO PUSH3 0x12C JUMPI PUSH1 0x0 DUP1 REVERT JUMPDEST DUP3 MSTORE POP DUP2 MLOAD PUSH1 0x20 SWAP2 DUP3 ADD SWAP3 SWAP1 SWAP2 ADD SWAP1 DUP1 DUP4 DUP4 PUSH1 0x0 JUMPDEST DUP4 DUP2 LT ISZERO PUSH3 0x15B JUMPI DUP2 DUP2 ADD MLOAD DUP4 DUP3 ADD MSTORE PUSH1 0x20 ADD PUSH3 0x141 JUMP JUMPDEST POP POP POP POP SWAP1 POP SWAP1 DUP2 ADD SWAP1 PUSH1 0x1F AND DUP1 ISZERO PUSH3 0x189 JUMPI DUP1 DUP3 SUB DUP1 MLOAD PUSH1 0x1 DUP4 PUSH1 0x20 SUB PUSH2 0x100 EXP SUB NOT AND DUP2 MSTORE PUSH1 0x20 ADD SWAP2 POP JUMPDEST POP PUSH1 0x40 MSTORE POP POP PUSH1 0x0 DUP1 SLOAD PUSH1 0x1 PUSH1 0x1 PUSH1 0xA0 SHL SUB NOT AND CALLER OR SWAP1 SSTORE POP DUP5 MLOAD PUSH3 0x1B7 SWAP1 PUSH1 0x3 SWAP1 PUSH1 0x20 DUP9 ADD SWAP1 PUSH3 0x2BB JUMP JUMPDEST POP PUSH1 0x5 DUP5 SWAP1 SSTORE PUSH1 0x6 DUP4 SWAP1 SSTORE PUSH1 0x7 DUP1 SLOAD PUSH1 0xFF NOT AND DUP4 ISZERO ISZERO OR SWAP1 SSTORE DUP1 MLOAD PUSH3 0x1E5 SWAP1 PUSH1 0x2 SWAP1 PUSH1 0x20 DUP5 ADD SWAP1 PUSH3 0x325 JUMP JUMPDEST POP DUP1 MLOAD PUSH1 0x20 DUP3 ADD KECCAK256 PUSH1 0x1 SSTORE PUSH1 0x0 JUMPDEST DUP6 MLOAD DUP2 LT ISZERO PUSH3 0x25A JUMPI DUP6 DUP2 DUP2 MLOAD DUP2 LT PUSH3 0x20A JUMPI INVALID JUMPDEST PUSH1 0x20 MUL PUSH1 0x20 ADD ADD MLOAD PUSH1 0x1 PUSH1 0x1 PUSH1 0xA0 SHL SUB AND BALANCE PUSH1 0x4 PUSH1 0x0 DUP9 DUP5 DUP2 MLOAD DUP2 LT PUSH3 0x22D JUMPI INVALID JUMPDEST PUSH1 0x20 SWAP1 DUP2 MUL SWAP2 SWAP1 SWAP2 ADD DUP2 ADD MLOAD PUSH1 0x1 PUSH1 0x1 PUSH1 0xA0 SHL SUB AND DUP3 MSTORE DUP2 ADD SWAP2 SWAP1 SWAP2 MSTORE PUSH1 0x40 ADD PUSH1 0x0 KECCAK256 SSTORE PUSH1 0x1 ADD PUSH3 0x1F3 JUMP JUMPDEST POP PUSH1 0x5 SLOAD PUSH1 0x6 SLOAD PUSH1 0x7 SLOAD DUP8 MLOAD PUSH1 0x40 DUP1 MLOAD SWAP5 DUP6 MSTORE PUSH1 0x20 DUP6 ADD SWAP4 SWAP1 SWAP4 MSTORE PUSH1 0xFF SWAP1 SWAP2 AND ISZERO ISZERO DUP4 DUP4 ADD MSTORE PUSH1 0x60 DUP4 ADD MSTORE MLOAD PUSH32 0xD0057A0AA0074C45738574A9B56149F693D172E13F4975ED43F10ED352DD14D0 SWAP2 DUP2 SWAP1 SUB PUSH1 0x80 ADD SWAP1 LOG1 POP POP POP POP POP PUSH3 0x3BF JUMP JUMPDEST DUP3 DUP1 SLOAD DUP3 DUP3 SSTORE SWAP1 PUSH1 0x0 MSTORE PUSH1 0x20 PUSH1 0x0 KECCAK256 SWAP1 DUP2 ADD SWAP3 DUP3 ISZERO PUSH3 0x313 JUMPI SWAP2 PUSH1 0x20 MUL DUP3 ADD JUMPDEST DUP3 DUP2 GT ISZERO PUSH3 0x313 JUMPI DUP3 MLOAD DUP3 SLOAD PUSH1 0x1 PUSH1 0x1 PUSH1 0xA0 SHL SUB NOT AND PUSH1 0x1 PUSH1 0x1 PUSH1 0xA0 SHL SUB SWAP1 SWAP2 AND OR DUP3 SSTORE PUSH1 0x20 SWAP1 SWAP3 ADD SWAP2 PUSH1 0x1 SWAP1 SWAP2 ADD SWAP1 PUSH3 0x2DC JUMP JUMPDEST POP PUSH3 0x321 SWAP3 SWAP2 POP PUSH3 0x3A8 JUMP JUMPDEST POP SWAP1 JUMP JUMPDEST DUP3 DUP1 SLOAD PUSH1 0x1 DUP2 PUSH1 0x1 AND ISZERO PUSH2 0x100 MUL SUB AND PUSH1 0x2 SWAP1 DIV SWAP1 PUSH1 0x0 MSTORE PUSH1 0x20 PUSH1 0x0 KECCAK256 SWAP1 PUSH1 0x1F ADD PUSH1 0x20 SWAP1 DIV DUP2 ADD SWAP3 DUP3 PUSH3 0x35D JUMPI PUSH1 0x0 DUP6 SSTORE PUSH3 0x313 JUMP JUMPDEST DUP3 PUSH1 0x1F LT PUSH3 0x378 JUMPI DUP1 MLOAD PUSH1 0xFF NOT AND DUP4 DUP1 ADD OR DUP6 SSTORE PUSH3 0x313 JUMP JUMPDEST DUP3 DUP1 ADD PUSH1 0x1 ADD DUP6 SSTORE DUP3 ISZERO PUSH3 0x313 JUMPI SWAP2 DUP3 ADD JUMPDEST DUP3 DUP2 GT ISZERO PUSH3 0x313 JUMPI DUP3 MLOAD DUP3 SSTORE SWAP2 PUSH1 0x20 ADD SWAP2 SWAP1 PUSH1 0x1 ADD SWAP1 PUSH3 0x38B JUMP JUMPDEST JUMPDEST DUP1 DUP3 GT ISZERO PUSH3 0x321 JUMPI PUSH1 0x0 DUP2 SSTORE PUSH1 0x1 ADD PUSH3 0x3A9 JUMP JUMPDEST PUSH2 0x8D6 DUP1 PUSH3 0x3CF PUSH1 0x0 CODECOPY PUSH1 0x0 RETURN INVALID PUSH1 0x80 PUSH1 0x40 MSTORE CALLVALUE DUP1 ISZERO PUSH2 0x10 JUMPI PUSH1 0x0 DUP1 REVERT JUMPDEST POP PUSH1 0x4 CALLDATASIZE LT PUSH2 0x10B JUMPI PUSH1 0x0 CALLDATALOAD PUSH1 0xE0 SHR DUP1 PUSH4 0x79838B1E GT PUSH2 0xA2 JUMPI DUP1 PUSH4 0xC4A91543 GT PUSH2 0x71 JUMPI DUP1 PUSH4 0xC4A91543 EQ PUSH2 0x1F5 JUMPI DUP1 PUSH4 0xE481D413 EQ PUSH2 0x1FD JUMPI DUP1 PUSH4 0xE65F2A7E EQ PUSH2 0x269 JUMPI DUP1 PUSH4 0xF43157E1 EQ PUSH2 0x271 JUMPI DUP1 PUSH4 0xF779A5AB EQ PUSH2 0x297 JUMPI PUSH2 0x10B JUMP JUMPDEST DUP1 PUSH4 0x79838B1E EQ PUSH2 0x1D5 JUMPI DUP1 PUSH4 0x8DA5CB5B EQ PUSH2 0x1DD JUMPI DUP1 PUSH4 0xB01285CD EQ PUSH2 0x1E5 JUMPI DUP1 PUSH4 0xB29AC03A EQ PUSH2 0x1ED JUMPI PUSH2 0x10B JUMP JUMPDEST DUP1 PUSH4 0x37A6D42B GT PUSH2 0xDE JUMPI DUP1 PUSH4 0x37A6D42B EQ PUSH2 0x18C JUMPI DUP1 PUSH4 0x51830227 EQ PUSH2 0x194 JUMPI DUP1 PUSH4 0x5DF1BFE5 EQ PUSH2 0x1B0 JUMPI DUP1 PUSH4 0x6F23D694 EQ PUSH2 0x1B8 JUMPI PUSH2 0x10B JUMP JUMPDEST DUP1 PUSH4 0xA39CE02 EQ PUSH2 0x110 JUMPI DUP1 PUSH4 0xE457C4F EQ PUSH2 0x149 JUMPI DUP1 PUSH4 0x1455E4D7 EQ PUSH2 0x163 JUMPI DUP1 PUSH4 0x1E82E67E EQ PUSH2 0x16B JUMPI JUMPDEST PUSH1 0x0 DUP1 REVERT JUMPDEST PUSH2 0x12D PUSH1 0x4 DUP1 CALLDATASIZE SUB PUSH1 0x20 DUP2 LT ISZERO PUSH2 0x126 JUMPI PUSH1 0x0 DUP1 REVERT JUMPDEST POP CALLDATALOAD PUSH2 0x2B4 JUMP JUMPDEST PUSH1 0x40 DUP1 MLOAD PUSH1 0x1 PUSH1 0x1 PUSH1 0xA0 SHL SUB SWAP1 SWAP3 AND DUP3 MSTORE MLOAD SWAP1 DUP2 SWAP1 SUB PUSH1 0x20 ADD SWAP1 RETURN JUMPDEST PUSH2 0x151 PUSH2 0x2DE JUMP JUMPDEST PUSH1 0x40 DUP1 MLOAD SWAP2 DUP3 MSTORE MLOAD SWAP1 DUP2 SWAP1 SUB PUSH1 0x20 ADD SWAP1 RETURN JUMPDEST PUSH2 0x151 PUSH2 0x2E4 JUMP JUMPDEST PUSH2 0x18A PUSH1 0x4 DUP1 CALLDATASIZE SUB PUSH1 0x20 DUP2 LT ISZERO PUSH2 0x181 JUMPI PUSH1 0x0 DUP1 REVERT JUMPDEST POP CALLDATALOAD ISZERO ISZERO PUSH2 0x2EA JUMP JUMPDEST STOP JUMPDEST PUSH2 0x12D PUSH2 0x342 JUMP JUMPDEST PUSH2 0x19C PUSH2 0x356 JUMP JUMPDEST PUSH1 0x40 DUP1 MLOAD SWAP2 ISZERO ISZERO DUP3 MSTORE MLOAD SWAP1 DUP2 SWAP1 SUB PUSH1 0x20 ADD SWAP1 RETURN JUMPDEST PUSH2 0x18A PUSH2 0x35F JUMP JUMPDEST PUSH2 0x18A PUSH1 0x4 DUP1 CALLDATASIZE SUB PUSH1 0x20 DUP2 LT ISZERO PUSH2 0x1CE JUMPI PUSH1 0x0 DUP1 REVERT JUMPDEST POP CALLDATALOAD PUSH2 0x645 JUMP JUMPDEST PUSH2 0x151 PUSH2 0x68F JUMP JUMPDEST PUSH2 0x12D PUSH2 0x695 JUMP JUMPDEST PUSH2 0x151 PUSH2 0x6A4 JUMP JUMPDEST PUSH2 0x19C PUSH2 0x6AA JUMP JUMPDEST PUSH2 0x151 PUSH2 0x6B3 JUMP JUMPDEST PUSH2 0x205 PUSH2 0x6B9 JUMP JUMPDEST PUSH1 0x40 MLOAD DUP1 DUP5 DUP2 MSTORE PUSH1 0x20 ADD DUP1 PUSH1 0x20 ADD DUP4 ISZERO ISZERO DUP2 MSTORE PUSH1 0x20 ADD DUP3 DUP2 SUB DUP3 MSTORE DUP5 DUP2 DUP2 MLOAD DUP2 MSTORE PUSH1 0x20 ADD SWAP2 POP DUP1 MLOAD SWAP1 PUSH1 0x20 ADD SWAP1 PUSH1 0x20 MUL DUP1 DUP4 DUP4 PUSH1 0x0 JUMPDEST DUP4 DUP2 LT ISZERO PUSH2 0x253 JUMPI DUP2 DUP2 ADD MLOAD DUP4 DUP3 ADD MSTORE PUSH1 0x20 ADD PUSH2 0x23B JUMP JUMPDEST POP POP POP POP SWAP1 POP ADD SWAP5 POP POP POP POP POP PUSH1 0x40 MLOAD DUP1 SWAP2 SUB SWAP1 RETURN JUMPDEST PUSH2 0x18A PUSH2 0x79E JUMP JUMPDEST PUSH2 0x151 PUSH1 0x4 DUP1 CALLDATASIZE SUB PUSH1 0x20 DUP2 LT ISZERO PUSH2 0x287 JUMPI PUSH1 0x0 DUP1 REVERT JUMPDEST POP CALLDATALOAD PUSH1 0x1 PUSH1 0x1 PUSH1 0xA0 SHL SUB AND PUSH2 0x844 JUMP JUMPDEST PUSH2 0x18A PUSH1 0x4 DUP1 CALLDATASIZE SUB PUSH1 0x20 DUP2 LT ISZERO PUSH2 0x2AD JUMPI PUSH1 0x0 DUP1 REVERT JUMPDEST POP CALLDATALOAD PUSH2 0x856 JUMP JUMPDEST PUSH1 0x3 DUP2 DUP2 SLOAD DUP2 LT PUSH2 0x2C4 JUMPI PUSH1 0x0 DUP1 REVERT JUMPDEST PUSH1 0x0 SWAP2 DUP3 MSTORE PUSH1 0x20 SWAP1 SWAP2 KECCAK256 ADD SLOAD PUSH1 0x1 PUSH1 0x1 PUSH1 0xA0 SHL SUB AND SWAP1 POP DUP2 JUMP JUMPDEST PUSH1 0x5 SLOAD DUP2 JUMP JUMPDEST PUSH1 0x1 SLOAD DUP2 JUMP JUMPDEST PUSH1 0x0 SLOAD PUSH1 0x1 PUSH1 0x1 PUSH1 0xA0 SHL SUB AND CALLER EQ PUSH2 0x32F JUMPI PUSH1 0x40 DUP1 MLOAD PUSH3 0x461BCD PUSH1 0xE5 SHL DUP2 MSTORE PUSH1 0x20 PUSH1 0x4 DUP3 ADD MSTORE PUSH1 0x3 PUSH1 0x24 DUP3 ADD MSTORE PUSH3 0x27ABA7 PUSH1 0xE9 SHL PUSH1 0x44 DUP3 ADD MSTORE SWAP1 MLOAD SWAP1 DUP2 SWAP1 SUB PUSH1 0x64 ADD SWAP1 REVERT JUMPDEST PUSH1 0x7 DUP1 SLOAD PUSH1 0xFF NOT AND SWAP2 ISZERO ISZERO SWAP2 SWAP1 SWAP2 OR SWAP1 SSTORE JUMP JUMPDEST PUSH1 0x7 SLOAD PUSH2 0x100 SWAP1 DIV PUSH1 0x1 PUSH1 0x1 PUSH1 0xA0 SHL SUB AND DUP2 JUMP JUMPDEST PUSH1 0x9 SLOAD PUSH1 0xFF AND DUP2 JUMP JUMPDEST PUSH1 0x9 SLOAD PUSH1 0xFF AND ISZERO PUSH2 0x3A2 JUMPI PUSH1 0x40 DUP1 MLOAD PUSH3 0x461BCD PUSH1 0xE5 SHL DUP2 MSTORE PUSH1 0x20 PUSH1 0x4 DUP3 ADD MSTORE PUSH1 0x8 PUSH1 0x24 DUP3 ADD MSTORE PUSH8 0x1491559150531151 PUSH1 0xC2 SHL PUSH1 0x44 DUP3 ADD MSTORE SWAP1 MLOAD SWAP1 DUP2 SWAP1 SUB PUSH1 0x64 ADD SWAP1 REVERT JUMPDEST PUSH1 0x7 SLOAD PUSH2 0x100 SWAP1 DIV PUSH1 0x1 PUSH1 0x1 PUSH1 0xA0 SHL SUB AND PUSH2 0x3F5 JUMPI PUSH1 0x40 DUP1 MLOAD PUSH3 0x461BCD PUSH1 0xE5 SHL DUP2 MSTORE PUSH1 0x20 PUSH1 0x4 DUP3 ADD MSTORE PUSH1 0xE PUSH1 0x24 DUP3 ADD MSTORE PUSH14 0x1393D7D41054951250D254105395 PUSH1 0x92 SHL PUSH1 0x44 DUP3 ADD MSTORE SWAP1 MLOAD SWAP1 DUP2 SWAP1 SUB PUSH1 0x64 ADD SWAP1 REVERT JUMPDEST PUSH1 0x0 DUP1 PUSH2 0x400 PUSH2 0x6B9 JUMP JUMPDEST PUSH1 0x7 SLOAD SWAP3 SWAP5 POP SWAP3 POP POP PUSH1 0xFF AND ISZERO PUSH2 0x45C JUMPI DUP1 PUSH2 0x457 JUMPI PUSH1 0x40 DUP1 MLOAD PUSH3 0x461BCD PUSH1 0xE5 SHL DUP2 MSTORE PUSH1 0x20 PUSH1 0x4 DUP3 ADD MSTORE PUSH1 0x11 PUSH1 0x24 DUP3 ADD MSTORE PUSH17 0x1393D517D19553131657D1149052539151 PUSH1 0x7A SHL PUSH1 0x44 DUP3 ADD MSTORE SWAP1 MLOAD SWAP1 DUP2 SWAP1 SUB PUSH1 0x64 ADD SWAP1 REVERT JUMPDEST PUSH2 0x4A7 JUMP JUMPDEST PUSH1 0x5 SLOAD DUP3 LT ISZERO PUSH2 0x4A7 JUMPI PUSH1 0x40 DUP1 MLOAD PUSH3 0x461BCD PUSH1 0xE5 SHL DUP2 MSTORE PUSH1 0x20 PUSH1 0x4 DUP3 ADD MSTORE PUSH1 0x11 PUSH1 0x24 DUP3 ADD MSTORE PUSH17 0x494E53554646494349454E545F4C4F5353 PUSH1 0x78 SHL PUSH1 0x44 DUP3 ADD MSTORE SWAP1 MLOAD SWAP1 DUP2 SWAP1 SUB PUSH1 0x64 ADD SWAP1 REVERT JUMPDEST PUSH1 0x7 SLOAD PUSH1 0x8 SLOAD PUSH2 0x100 SWAP1 SWAP2 DIV PUSH1 0x1 PUSH1 0x1 PUSH1 0xA0 SHL SUB AND BALANCE SWAP1 DUP2 LT ISZERO PUSH2 0x50B JUMPI PUSH1 0x40 DUP1 MLOAD PUSH3 0x461BCD PUSH1 0xE5 SHL DUP2 MSTORE PUSH1 0x20 PUSH1 0x4 DUP3 ADD MSTORE PUSH1 0x16 PUSH1 0x24 DUP3 ADD MSTORE PUSH22 0x141054951250D25410539517D393D517D1D052539151 PUSH1 0x52 SHL PUSH1 0x44 DUP3 ADD MSTORE SWAP1 MLOAD SWAP1 DUP2 SWAP1 SUB PUSH1 0x64 ADD SWAP1 REVERT JUMPDEST PUSH1 0x8 SLOAD PUSH1 0x6 SLOAD SWAP1 DUP3 SUB SWAP1 DUP2 LT ISZERO PUSH2 0x55D JUMPI PUSH1 0x40 DUP1 MLOAD PUSH3 0x461BCD PUSH1 0xE5 SHL DUP2 MSTORE PUSH1 0x20 PUSH1 0x4 DUP3 ADD MSTORE PUSH1 0x11 PUSH1 0x24 DUP3 ADD MSTORE PUSH17 0x24A729AAA32324A1A4A2A72A2FA3A0A4A7 PUSH1 0x79 SHL PUSH1 0x44 DUP3 ADD MSTORE SWAP1 MLOAD SWAP1 DUP2 SWAP1 SUB PUSH1 0x64 ADD SWAP1 REVERT JUMPDEST PUSH1 0x9 DUP1 SLOAD PUSH1 0x1 PUSH1 0xFF NOT SWAP1 SWAP2 AND DUP2 OR SWAP1 SWAP2 SSTORE PUSH1 0x7 SLOAD PUSH1 0x40 DUP1 MLOAD PUSH1 0x20 DUP2 ADD DUP9 SWAP1 MSTORE SWAP1 DUP2 ADD DUP5 SWAP1 MSTORE PUSH1 0x60 DUP1 DUP3 MSTORE PUSH1 0x2 DUP1 SLOAD PUSH2 0x100 SWAP6 DUP2 AND ISZERO DUP7 MUL PUSH1 0x0 NOT ADD AND DUP2 SWAP1 DIV SWAP2 DUP4 ADD DUP3 SWAP1 MSTORE SWAP4 SWAP1 SWAP3 DIV PUSH1 0x1 PUSH1 0x1 PUSH1 0xA0 SHL SUB AND SWAP3 PUSH32 0x3680BC648C0679F67515197CC1AA54E3595211EBD7A153483D13A424DA172FA7 SWAP3 SWAP1 SWAP2 DUP9 SWAP2 DUP7 SWAP2 SWAP1 DUP2 SWAP1 PUSH1 0x80 DUP3 ADD SWAP1 DUP7 SWAP1 DUP1 ISZERO PUSH2 0x62F JUMPI DUP1 PUSH1 0x1F LT PUSH2 0x604 JUMPI PUSH2 0x100 DUP1 DUP4 SLOAD DIV MUL DUP4 MSTORE SWAP2 PUSH1 0x20 ADD SWAP2 PUSH2 0x62F JUMP JUMPDEST DUP3 ADD SWAP2 SWAP1 PUSH1 0x0 MSTORE PUSH1 0x20 PUSH1 0x0 KECCAK256 SWAP1 JUMPDEST DUP2 SLOAD DUP2 MSTORE SWAP1 PUSH1 0x1 ADD SWAP1 PUSH1 0x20 ADD DUP1 DUP4 GT PUSH2 0x612 JUMPI DUP3 SWAP1 SUB PUSH1 0x1F AND DUP3 ADD SWAP2 JUMPDEST POP POP SWAP5 POP POP POP POP POP PUSH1 0x40 MLOAD DUP1 SWAP2 SUB SWAP1 LOG2 POP POP POP POP JUMP JUMPDEST PUSH1 0x0 SLOAD PUSH1 0x1 PUSH1 0x1 PUSH1 0xA0 SHL SUB AND CALLER EQ PUSH2 0x68A JUMPI PUSH1 0x40 DUP1 MLOAD PUSH3 0x461BCD PUSH1 0xE5 SHL DUP2 MSTORE PUSH1 0x20 PUSH1 0x4 DUP3 ADD MSTORE PUSH1 0x3 PUSH1 0x24 DUP3 ADD MSTORE PUSH3 0x27ABA7 PUSH1 0xE9 SHL PUSH1 0x44 DUP3 ADD MSTORE SWAP1 MLOAD SWAP1 DUP2 SWAP1 SUB PUSH1 0x64 ADD SWAP1 REVERT JUMPDEST PUSH1 0x6 SSTORE JUMP JUMPDEST PUSH1 0x8 SLOAD DUP2 JUMP JUMPDEST PUSH1 0x0 SLOAD PUSH1 0x1 PUSH1 0x1 PUSH1 0xA0 SHL SUB AND DUP2 JUMP JUMPDEST PUSH1 0x3 SLOAD SWAP1 JUMP JUMPDEST PUSH1 0x7 SLOAD PUSH1 0xFF AND DUP2 JUMP JUMPDEST PUSH1 0x6 SLOAD DUP2 JUMP JUMPDEST PUSH1 0x0 PUSH1 0x60 PUSH1 0x0 PUSH1 0x3 DUP1 SLOAD SWAP1 POP PUSH8 0xFFFFFFFFFFFFFFFF DUP2 GT DUP1 ISZERO PUSH2 0x6DB JUMPI PUSH1 0x0 DUP1 REVERT JUMPDEST POP PUSH1 0x40 MLOAD SWAP1 DUP1 DUP3 MSTORE DUP1 PUSH1 0x20 MUL PUSH1 0x20 ADD DUP3 ADD PUSH1 0x40 MSTORE DUP1 ISZERO PUSH2 0x705 JUMPI DUP2 PUSH1 0x20 ADD PUSH1 0x20 DUP3 MUL DUP1 CALLDATASIZE DUP4 CALLDATACOPY ADD SWAP1 POP JUMPDEST POP SWAP2 POP PUSH1 0x1 SWAP1 POP PUSH1 0x0 JUMPDEST PUSH1 0x3 SLOAD DUP2 LT ISZERO PUSH2 0x798 JUMPI PUSH1 0x0 PUSH1 0x3 DUP3 DUP2 SLOAD DUP2 LT PUSH2 0x728 JUMPI INVALID JUMPDEST PUSH1 0x0 SWAP2 DUP3 MSTORE PUSH1 0x20 DUP1 DUP4 KECCAK256 SWAP1 SWAP2 ADD SLOAD PUSH1 0x1 PUSH1 0x1 PUSH1 0xA0 SHL SUB AND DUP1 DUP4 MSTORE PUSH1 0x4 SWAP1 SWAP2 MSTORE PUSH1 0x40 SWAP1 SWAP2 KECCAK256 SLOAD SWAP1 SWAP2 POP DUP2 BALANCE DUP2 DUP2 LT ISZERO PUSH2 0x77F JUMPI PUSH1 0x0 DUP2 DUP4 SUB SWAP1 POP DUP1 DUP8 DUP7 DUP2 MLOAD DUP2 LT PUSH2 0x76E JUMPI INVALID JUMPDEST PUSH1 0x20 SWAP1 DUP2 MUL SWAP2 SWAP1 SWAP2 ADD ADD MSTORE SWAP7 SWAP1 SWAP7 ADD SWAP6 JUMPDEST PUSH1 0x1 DUP2 GT ISZERO PUSH2 0x78D JUMPI PUSH1 0x0 SWAP5 POP JUMPDEST POP POP POP PUSH1 0x1 ADD PUSH2 0x70F JUMP JUMPDEST POP SWAP1 SWAP2 SWAP3 JUMP JUMPDEST PUSH1 0x7 SLOAD PUSH2 0x100 SWAP1 DIV PUSH1 0x1 PUSH1 0x1 PUSH1 0xA0 SHL SUB AND ISZERO PUSH2 0x7EC JUMPI PUSH1 0x40 DUP1 MLOAD PUSH3 0x461BCD PUSH1 0xE5 SHL DUP2 MSTORE PUSH1 0x20 PUSH1 0x4 DUP3 ADD MSTORE PUSH1 0x8 PUSH1 0x24 DUP3 ADD MSTORE PUSH8 0x11539493D3131151 PUSH1 0xC2 SHL PUSH1 0x44 DUP3 ADD MSTORE SWAP1 MLOAD SWAP1 DUP2 SWAP1 SUB PUSH1 0x64 ADD SWAP1 REVERT JUMPDEST PUSH1 0x7 DUP1 SLOAD PUSH2 0x100 PUSH1 0x1 PUSH1 0xA8 SHL SUB NOT AND CALLER PUSH2 0x100 DUP2 MUL SWAP2 SWAP1 SWAP2 OR SWAP1 SWAP2 SSTORE DUP1 BALANCE PUSH1 0x8 DUP2 SWAP1 SSTORE PUSH1 0x40 DUP1 MLOAD SWAP2 DUP3 MSTORE MLOAD PUSH32 0x490A826084DB94EBF4AD258B797124C9F62176DD5F68205FFBD52D1260F7ED54 SWAP2 PUSH1 0x20 SWAP1 DUP3 SWAP1 SUB ADD SWAP1 LOG2 JUMP JUMPDEST PUSH1 0x4 PUSH1 0x20 MSTORE PUSH1 0x0 SWAP1 DUP2 MSTORE PUSH1 0x40 SWAP1 KECCAK256 SLOAD DUP2 JUMP JUMPDEST PUSH1 0x0 SLOAD PUSH1 0x1 PUSH1 0x1 PUSH1 0xA0 SHL SUB AND CALLER EQ PUSH2 0x89B JUMPI PUSH1 0x40 DUP1 MLOAD PUSH3 0x461BCD PUSH1 0xE5 SHL DUP2 MSTORE PUSH1 0x20 PUSH1 0x4 DUP3 ADD MSTORE PUSH1 0x3 PUSH1 0x24 DUP3 ADD MSTORE PUSH3 0x27ABA7 PUSH1 0xE9 SHL PUSH1 0x44 DUP3 ADD MSTORE SWAP1 MLOAD SWAP1 DUP2 SWAP1 SUB PUSH1 0x64 ADD SWAP1 REVERT JUMPDEST PUSH1 0x5 SSTORE JUMP INVALID LOG2 PUSH5 0x6970667358 0x22 SLT KECCAK256 0xC8 0xE1 0x49 PUSH11 0xE4DB3E3CF942E70F7BE63C 0xD0 0xCB PUSH3 0xFF4021 SWAP10 XOR 0xFB DUP15 CREATE 0xC1 0xE6 0xE3 0xE2 0xAB PUSH16 0x64736F6C634300070600330000000000 "
        },
        "methodIdentifiers": {
          "checkAndReveal()": "5df1bfe5",
          "currentLossWei()": "e481d413",
          "drainAll()": "b29ac03a",
          "enroll()": "e65f2a7e",
          "flagHash()": "1455e4d7",
          "initialEth(address)": "f43157e1",
          "minGainWei()": "c4a91543",
          "minLossWei()": "0e457c4f",
          "owner()": "8da5cb5b",
          "participant()": "37a6d42b",
          "participantInitialEth()": "79838b1e",
          "revealed()": "51830227",
          "setDrainAll(bool)": "1e82e67e",
          "setMinGain(uint256)": "6f23d694",
          "setMinLoss(uint256)": "f779a5ab",
          "targetCount()": "b01285cd",
          "targets(uint256)": "0a39ce02"
        }
      }
    }
  }
}