{
  "_format": "hh-sol-artifact-1",
  "contractName": "CTFMonitor",
  "sourceName": "contracts/CTFMonitor.sol",
  "abi": [
    {
      "inputs": [
        {
          "internalType": "address[]",
          "name": "_targets",
          "type": "address[]"
        },
        {
          "internalType": "uint256",
          "name": "_minLossWei",
          "type": "uint256"
        },
        {
          "internalType": "uint256",
          "name": "_minGainWei",
          "type": "uint256"
        },
        {
          "internalType": "bool",
          "name": "_drainAll",
          "type": "bool"
        },
        {
          "internalType": "string",
          "name": "_flag",
          "type": "string"
        }
      ],
      "stateMutability": "nonpayable",
      "type": "constructor"
    },
    {
      "anonymous": false,
      "inputs": [
        {
          "indexed": true,
          "internalType": "address",
          "name": "participant",
          "type": "address"
        },
        {
          "indexed": false,
          "internalType": "string",
          "name": "flag",
          "type": "string"
        },
        {
          "indexed": false,
          "internalType": "uint256",
          "name": "totalLossWei",
          "type": "uint256"
        },
        {
          "indexed": false,
          "internalType": "uint256",
          "name": "participantGainWei",
          "type": "uint256"
        }
      ],
      "name": "CTF_FLAG",
      "type": "event"
    },
    {
      "anonymous": false,
      "inputs": [
        {
          "indexed": true,
          "internalType": "address",
          "name": "participant",
          "type": "address"
        },
        {
          "indexed": false,
          "internalType": "uint256",
          "name": "initialEth",
          "type": "uint256"
        }
      ],
      "name": "Enrolled",
      "type": "event"
    },
    {
      "anonymous": false,
      "inputs": [
        {
          "indexed": false,
          "internalType": "uint256",
          "name": "minLossWei",
          "type": "uint256"
        },
        {
          "indexed": false,
          "internalType": "uint256",
          "name": "minGainWei",
          "type": "uint256"
        },
        {
          "indexed": false,
          "internalType": "bool",
          "name": "drainAll",
          "type": "bool"
        },
        {
          "indexed": false,
          "internalType": "uint256",
          "name": "numTargets",
          "type": "uint256"
        }
      ],
      "name": "FlagArmed",
      "type": "event"
    },
    {
      "inputs": [],
      "name": "checkAndReveal",
      "outputs": [],
      "stateMutability": "nonpayable",
      "type": "function"
    },
    {
      "inputs": [],
      "name": "currentLossWei",
      "outputs": [
        {
          "internalType": "uint256",
          "name": "loss",
          "type": "uint256"
        },
        {
          "internalType": "uint256[]",
          "name": "perTargetLoss",
          "type": "uint256[]"
        },
        {
          "internalType": "bool",
          "name": "allDrained",
          "type": "bool"
        }
      ],
      "stateMutability": "view",
      "type": "function"
    },
    {
      "inputs": [],
      "name": "drainAll",
      "outputs": [
        {
          "internalType": "bool",
          "name": "",
          "type": "bool"
        }
      ],
      "stateMutability": "view",
      "type": "function"
    },
    {
      "inputs": [],
      "name": "enroll",
      "outputs": [],
      "stateMutability": "nonpayable",
      "type": "function"
    },
    {
      "inputs": [],
      "name": "flagHash",
      "outputs": [
        {
          "internalType": "bytes32",
          "name": "",
          "type": "bytes32"
        }
      ],
      "stateMutability": "view",
      "type": "function"
    },
    {
      "inputs": [
        {
          "internalType": "address",
          "name": "",
          "type": "address"
        }
      ],
      "name": "initialEth",
      "outputs": [
        {
          "internalType": "uint256",
          "name": "",
          "type": "uint256"
        }
      ],
      "stateMutability": "view",
      "type": "function"
    },
    {
      "inputs": [],
      "name": "minGainWei",
      "outputs": [
        {
          "internalType": "uint256",
          "name": "",
          "type": "uint256"
        }
      ],
      "stateMutability": "view",
      "type": "function"
    },
    {
      "inputs": [],
      "name": "minLossWei",
      "outputs": [
        {
          "internalType": "uint256",
          "name": "",
          "type": "uint256"
        }
      ],
      "stateMutability": "view",
      "type": "function"
    },
    {
      "inputs": [],
      "name": "owner",
      "outputs": [
        {
          "internalType": "address",
          "name": "",
          "type": "address"
        }
      ],
      "stateMutability": "view",
      "type": "function"
    },
    {
      "inputs": [],
      "name": "participant",
      "outputs": [
        {
          "internalType": "address",
          "name": "",
          "type": "address"
        }
      ],
      "stateMutability": "view",
      "type": "function"
    },
    {
      "inputs": [],
      "name": "participantInitialEth",
      "outputs": [
        {
          "internalType": "uint256",
          "name": "",
          "type": "uint256"
        }
      ],
      "stateMutability": "view",
      "type": "function"
    },
    {
      "inputs": [],
      "name": "revealed",
      "outputs": [
        {
          "internalType": "bool",
          "name": "",
          "type": "bool"
        }
      ],
      "stateMutability": "view",
      "type": "function"
    },
    {
      "inputs": [
        {
          "internalType": "bool",
          "name": "_drainAll",
          "type": "bool"
        }
      ],
      "name": "setDrainAll",
      "outputs": [],
      "stateMutability": "nonpayable",
      "type": "function"
    },
    {
      "inputs": [
        {
          "internalType": "uint256",
          "name": "_minGainWei",
          "type": "uint256"
        }
      ],
      "name": "setMinGain",
      "outputs": [],
      "stateMutability": "nonpayable",
      "type": "function"
    },
    {
      "inputs": [
        {
          "internalType": "uint256",
          "name": "_minLossWei",
          "type": "uint256"
        }
      ],
      "name": "setMinLoss",
      "outputs": [],
      "stateMutability": "nonpayable",
      "type": "function"
    },
    {
      "inputs": [],
      "name": "targetCount",
      "outputs": [
        {
          "internalType": "uint256",
          "name": "",
          "type": "uint256"
        }
      ],
      "stateMutability": "view",
      "type": "function"
    },
    {
      "inputs": [
        {
          "internalType": "uint256",
          "name": "",
          "type": "uint256"
        }
      ],
      "name": "targets",
      "outputs": [
        {
          "internalType": "address",
          "name": "",
          "type": "address"
        }
      ],
      "stateMutability": "view",
      "type": "function"
    }
  ],
  "bytecode": "0x60806040523480156200001157600080fd5b5060405162000ca538038062000ca5833981810160405260a08110156200003757600080fd5b81019080805160405193929190846401000000008211156200005857600080fd5b9083019060208201858111156200006e57600080fd5b82518660208202830111640100000000821117156200008c57600080fd5b82525081516020918201928201910280838360005b83811015620000bb578181015183820152602001620000a1565b505050509190910160408181526020840151908401516060850151608090950180519297919693945090929184640100000000821115620000fb57600080fd5b9083019060208201858111156200011157600080fd5b82516401000000008111828201881017156200012c57600080fd5b82525081516020918201929091019080838360005b838110156200015b57818101518382015260200162000141565b50505050905090810190601f168015620001895780820380516001836020036101000a031916815260200191505b506040525050600080546001600160a01b03191633179055508451620001b7906003906020880190620002bb565b50600584905560068390556007805460ff19168315151790558051620001e590600290602084019062000325565b508051602082012060015560005b85518110156200025a578581815181106200020a57fe5b60200260200101516001600160a01b031631600460008884815181106200022d57fe5b6020908102919091018101516001600160a01b0316825281019190915260400160002055600101620001f3565b50600554600654600754875160408051948552602085019390935260ff9091161515838301526060830152517fd0057a0aa0074c45738574a9b56149f693d172e13f4975ed43f10ed352dd14d09181900360800190a15050505050620003bf565b82805482825590600052602060002090810192821562000313579160200282015b828111156200031357825182546001600160a01b0319166001600160a01b03909116178255602090920191600190910190620002dc565b5062000321929150620003a8565b5090565b828054600181600116156101000203166002900490600052602060002090601f0160209004810192826200035d576000855562000313565b82601f106200037857805160ff191683800117855562000313565b8280016001018555821562000313579182015b82811115620003135782518255916020019190600101906200038b565b5b80821115620003215760008155600101620003a9565b6108d680620003cf6000396000f3fe608060405234801561001057600080fd5b506004361061010b5760003560e01c806379838b1e116100a2578063c4a9154311610071578063c4a91543146101f5578063e481d413146101fd578063e65f2a7e14610269578063f43157e114610271578063f779a5ab146102975761010b565b806379838b1e146101d55780638da5cb5b146101dd578063b01285cd146101e5578063b29ac03a146101ed5761010b565b806337a6d42b116100de57806337a6d42b1461018c57806351830227146101945780635df1bfe5146101b05780636f23d694146101b85761010b565b80630a39ce02146101105780630e457c4f146101495780631455e4d7146101635780631e82e67e1461016b575b600080fd5b61012d6004803603602081101561012657600080fd5b50356102b4565b604080516001600160a01b039092168252519081900360200190f35b6101516102de565b60408051918252519081900360200190f35b6101516102e4565b61018a6004803603602081101561018157600080fd5b503515156102ea565b005b61012d610342565b61019c610356565b604080519115158252519081900360200190f35b61018a61035f565b61018a600480360360208110156101ce57600080fd5b5035610645565b61015161068f565b61012d610695565b6101516106a4565b61019c6106aa565b6101516106b3565b6102056106b9565b60405180848152602001806020018315158152602001828103825284818151815260200191508051906020019060200280838360005b8381101561025357818101518382015260200161023b565b5050505090500194505050505060405180910390f35b61018a61079e565b6101516004803603602081101561028757600080fd5b50356001600160a01b0316610844565b61018a600480360360208110156102ad57600080fd5b5035610856565b600381815481106102c457600080fd5b6000918252602090912001546001600160a01b0316905081565b60055481565b60015481565b6000546001600160a01b0316331461032f576040805162461bcd60e51b815260206004820152600360248201526227aba760e91b604482015290519081900360640190fd5b6007805460ff1916911515919091179055565b60075461010090046001600160a01b031681565b60095460ff1681565b60095460ff16156103a2576040805162461bcd60e51b8152602060048201526008602482015267149155915053115160c21b604482015290519081900360640190fd5b60075461010090046001600160a01b03166103f5576040805162461bcd60e51b815260206004820152600e60248201526d1393d7d41054951250d25410539560921b604482015290519081900360640190fd5b6000806104006106b9565b60075492945092505060ff161561045c5780610457576040805162461bcd60e51b81526020600482015260116024820152701393d517d19553131657d1149052539151607a1b604482015290519081900360640190fd5b6104a7565b6005548210156104a7576040805162461bcd60e51b8152602060048201526011602482015270494e53554646494349454e545f4c4f535360781b604482015290519081900360640190fd5b6007546008546101009091046001600160a01b0316319081101561050b576040805162461bcd60e51b8152602060048201526016602482015275141054951250d25410539517d393d517d1d05253915160521b604482015290519081900360640190fd5b6008546006549082039081101561055d576040805162461bcd60e51b815260206004820152601160248201527024a729aaa32324a1a4a2a72a2fa3a0a4a760791b604482015290519081900360640190fd5b60098054600160ff19909116811790915560075460408051602081018890529081018490526060808252600280546101009581161586026000190116819004918301829052939092046001600160a01b0316927f3680bc648c0679f67515197cc1aa54e3595211ebd7a153483d13a424da172fa79290918891869190819060808201908690801561062f5780601f106106045761010080835404028352916020019161062f565b820191906000526020600020905b81548152906001019060200180831161061257829003601f168201915b505094505050505060405180910390a250505050565b6000546001600160a01b0316331461068a576040805162461bcd60e51b815260206004820152600360248201526227aba760e91b604482015290519081900360640190fd5b600655565b60085481565b6000546001600160a01b031681565b60035490565b60075460ff1681565b60065481565b60006060600060038054905067ffffffffffffffff811180156106db57600080fd5b50604051908082528060200260200182016040528015610705578160200160208202803683370190505b5091506001905060005b6003548110156107985760006003828154811061072857fe5b60009182526020808320909101546001600160a01b0316808352600490915260409091205490915081318181101561077f57600081830390508087868151811061076e57fe5b602090810291909101015296909601955b600181111561078d57600094505b50505060010161070f565b50909192565b60075461010090046001600160a01b0316156107ec576040805162461bcd60e51b815260206004820152600860248201526711539493d313115160c21b604482015290519081900360640190fd5b60078054610100600160a81b031916336101008102919091179091558031600881905560408051918252517f490a826084db94ebf4ad258b797124c9f62176dd5f68205ffbd52d1260f7ed54916020908290030190a2565b60046020526000908152604090205481565b6000546001600160a01b0316331461089b576040805162461bcd60e51b815260206004820152600360248201526227aba760e91b604482015290519081900360640190fd5b60055556fea2646970667358221220c8e1496ae4db3e3cf942e70f7be63cd0cb62ff40219918fb8ef0c1e6e3e2ab6f64736f6c63430007060033",
  "linkReferences": {},
  "deployedLinkReferences": {}
}